:020000040800F2
:2000000000500020813E0008113E0008173E00081D3E0008233E0008293E000800000000BA
:200020000000000000000000000000002F3E00083B3E000800000000473E0008533E0008A4
:20004000C93E0008C93E0008C93E0008C93E0008C93E0008C93E0008C93E0008C93E000828
:20006000C93E0008C93E0008C93E0008C93E0008C93E0008C93E0008C93E0008C93E000808
:20008000C93E0008C93E0008C93E0008C93E0008C93E0008C93E0008C93E0008C93E0008E8
:2000A000C93E0008C93E0008C93E0008C93E0008613E0008C93E0008C93E0008C93E000830
:2000C000C93E0008C93E0008C93E0008C93E0008C93E0008C93E0008C93E0008C93E0008A8
:2000E000C93E0008C93E0008C93E00080000000000000000000000000000000000000000D3
:2001000000000000000000005FF808F110B5054C237833B9044B13B10448AFF3008001234D
:20012000237010BD4400002000000000F87A000808B5034B1BB103490348AFF3008008BD2C
:200140000000000048000020F87A0008034613F8012B002AFBD1181A0138704780B582B0BE
:2001600000AF00224FF480714E4804F004FD00224FF400714B4804F0FEFC002208214948BC
:2001800004F0F9FC484B1B781A46484B9B5C1A46474B9B5CFB71FB79DB09DBB21A464FF489
:2001A0000041444804F0E7FCFB799B09DBB203F00103DBB21A464FF400613E4804F0DBFC1D
:2001C000FB795B09DBB203F00103DBB21A464FF48071384804F0CFFCFB791B09DBB203F04B
:2001E0000103DBB21A464FF400412E4804F0C3FCFB79DB08DBB203F00103DBB21A464FF456
:200200008041284804F0B7FCFB799B08DBB203F00103DBB21A464FF40051224804F0ABFCE5
:20022000FB795B08DBB203F00103DBB21A464FF480511C4804F09FFCFB7903F00103DBB277
:200240001A464FF480511B4804F095FC164B1B78002B09D101224FF48071124804F08BFC1D
:20026000114B01221A7019E00F4B1B78012B09D101224FF400710B4804F07DFC0A4B022279
:200280001A700BE0084B1B78022B07D101220821044804F070FC044B00221A7000BF08370D
:2002A000BD4680BD000C01406000002064000020000000200008014080B483B000AF0346E5
:2002C000FB80FB88174AA2FB03235B099BB2DAB2154B1A70FB88134AA2FB03125209642163
:2002E00001FB02F29B1AFB80FB88104AA2FB0323DB089BB2DAB20C4B5A70FA880B4BA3FBEB
:200300000213D9080B469B000B445B00D31AFB80FB88DAB2044B9A7000BF0C37BD4680BC40
:20032000704700BF1F85EB5164000020CDCCCCCC80B584B000AF3B1D00221A605A609A60F2
:200340001A4B1B4A1A60194B00229A60174B01221A73164B00221A75144B4FF46022DA6156
:20036000124B00225A60114B01221A610F4803F033FE0346002B01D003F0F0FB00237B60AE
:200380000123BB600023FB603B1D1946074803F0B5FF0346002B01D003F0E0FB034803F0A2
:2003A000F3FE00BF1037BD4680BD00BF680000200024014080B582B000AF0A4803F092FF6E
:2003C0000346FB80FB8840F6E44202FB03F3064A82FB03125214DB17D31A9BB21846083776
:2003E000BD4680BD6800002029A4F05180B400AFBFF34F8F00BF064BDB6803F4E0620449DB
:20040000044B1343CB60BFF34F8F00BF00BFFDE700ED00E00400FA0580B400AF024B1B7887
:200420001846BD4680BC70479800002080B500AF034B00221A7000F051FB00BF80BD00BFDB
:200440009800002080B500AF2021134804F0ABFB124B1B78012B1DD0104B1B78082B01D1CE
:20046000FFF7C4FF0D4B1B78092B07D00B4B1B780A2B03D0094B1B780B2B06D1074B012273
:200480001A7000F02BFB00BF04E0044B01221A7000F05AFC00BF80BD000C014098000020D6
:2004A00080B500AF0821134804F07DFB124B1B78022B1DD0104B1B78082B01D1FFF796FFE0
:2004C0000D4B1B78092B07D00B4B1B780A2B03D0094B1B780B2B06D1074B02221A7000F051
:2004E000FDFA00BF04E0044B02221A7000F02CFC00BF80BD000801409800002080B500AF6C
:200500000421134804F04FFB124B1B78032B1DD0104B1B78082B01D1FFF768FF0D4B1B78D7
:20052000092B07D00B4B1B780A2B03D0094B1B780B2B06D1074B03221A7000F0CFFA00BF52
:2005400004E0044B03221A7000F0FEFB00BF80BD000801409800002080B500AF0221134871
:2005600004F021FB124B1B78042B1DD0104B1B78082B01D1FFF73AFF0D4B1B78092B07D047
:200580000B4B1B780A2B03D0094B1B780B2B06D1074B04221A7000F0A1FA00BF04E0044BF7
:2005A00004221A7000F0D0FB00BF80BD000801409800002080B500AF124B1B780B2B1ED0DB
:2005C000104B1B78082B01D1FFF710FF02F066FE0C4B1B78092B03D00A4B1B780A2B05D1E9
:2005E000084B0B221A7000F079FA04E0054B0B221A7000F0A9FB4FF47A7003F071F800BFC7
:2006000080BD00BF9800002080B500AF4FF40041134804F0C8FA134B1B78052B1DD0114B43
:200620001B78082B01D1FFF7E1FE0E4B1B78092B07D00C4B1B780A2B03D00A4B1B780B2B46
:2006400006D1084B05221A7000F048FA00BF04E0044B05221A7000F077FB00BF80BD00BFCD
:20066000001001409800002080B500AF4FF48041134804F098FA134B1B78062B1DD0114B3D
:200680001B78082B01D1FFF7B1FE0E4B1B78092B07D00C4B1B780A2B03D00A4B1B780B2B16
:2006A00006D1084B06221A7000F018FA00BF04E0044B06221A7000F047FB00BF80BD00BFCB
:2006C000001001409800002080B500AF4FF40051134804F068FA134B1B78072B1DD0114B7C
:2006E0001B78082B01D1FFF781FE0E4B1B78092B07D00C4B1B780A2B03D00A4B1B780B2BE6
:2007000006D1084B07221A7000F0E8F900BF04E0044B07221A7000F017FB00BF80BD00BFC9
:20072000001001409800002080B500AF0020FFF7C3FD0D4B1B78082B10D00C4A012101205F
:2007400001F052FC0A4A0121022001F04DFC40F6B83003F01DFC044B08221A70642002F0E5
:20076000BFFF00BF80BD00BF98000020107B0008247B000880B500AF084B1B78082B01D13F
:20078000FFF734FE054B1B78092B04D0034B09221A7000F0ABF900BF80BD00BF980000203C
:2007A00080B500AF084B1B78082B01D1FFF71EFE054B1B780A2B04D0034B0A221A7000F078
:2007C0008DF900BF80BD00BF9800002080B500AF114B1B780E2B1DD00F4B1B78082B01D135
:2007E000FFF704FE0C4B1B78092B07D00A4B1B780A2B03D0084B1B780B2B06D1064B0E22A8
:200800001A7000F06BF900BF04E0034B0E221A7000F09AFA00BF80BD9800002080B500AF33
:20082000114B1B780F2B1DD00F4B1B78082B01D1FFF7DCFD0C4B1B78092B07D00A4B1B7804
:200840000A2B03D0084B1B780B2B06D1064B0F221A7000F043F900BF04E0034B0F221A70B9
:2008600000F072FA00BF80BD9800002080B500AF114B1B78102B1DD00F4B1B78082B01D17B
:20088000FFF7B4FD0C4B1B78092B07D00A4B1B780A2B03D0084B1B780B2B06D1064B102256
:2008A0001A7000F01BF900BF04E0034B10221A7000F04AFA00BF80BD9800002080B500AF31
:2008C000114B1B78112B1DD00F4B1B78082B01D1FFF78CFD0C4B1B78092B07D00A4B1B78B2
:2008E0000A2B03D0084B1B780B2B06D1064B11221A7000F0F3F800BF04E0034B11221A7066
:2009000000F022FA00BF80BD9800002080B500AF114B1B78122B1DD00F4B1B78082B01D128
:20092000FFF764FD0C4B1B78092B07D00A4B1B780A2B03D0084B1B780B2B06D1064B122203
:200940001A7000F0CBF800BF04E0034B12221A7000F0FAF900BF80BD9800002080B500AF30
:20096000FFF770FD024802F0CBFF00BF80BD00BF387B000880B500AFFFF792FD024802F0F3
:20098000BFFF00BF80BD00BF487B000880B500AFFFF7B4FD024802F0B3FF00BF80BD00BFDF
:2009A000587B000880B500AFFFF7D6FD024802F0A7FF00BF80BD00BF687B000880B500AF43
:2009C000FFF722FE024802F09BFF00BF80BD00BF787B000880B500AFFFF746FE024802F01B
:2009E0008FFF00BF80BD00BF887B000880B500AFFFF76AFE024802F083FF00BF80BD00BFE8
:200A0000987B000880B500AFFFF78EFE024802F077FF00BF80BD00BFA87B000880B500AFD9
:200A2000FFF7BEFE024802F06BFF00BF80BD00BFB87B000880B500AFFFF79CFE024802F0B8
:200A40005FFF00BF80BD00BFC87B000880B500AFFFF7B0FD024802F053FF00BF80BD00BF62
:200A6000D87B000880B500AFFFF7B0FE024802F047FF00BF80BD00BFE87B000880B500AF07
:200A8000FFF7CCFE024802F03BFF00BF80BD00BFF87B000880B500AFFFF7E8FE024802F0EE
:200AA0002FFF00BF80BD00BF087C000880B500AFFFF704FF024802F023FF00BF80BD00BFCB
:200AC000187C000880B500AFFFF720FF024802F017FF00BF80BD00BF287C000880B500AFE4
:200AE00000F004F800F030F900BF80BD80B500AF7F4B1B78002B0AD17E4A0121012001F0B2
:200B000073FA7D4A0121022001F06EFAEEE0784B1B78012B0AD1774A0121012001F064FA86
:200B2000764A0121022001F05FFADFE0704B1B78022B0AD16F4A0121012001F055FA704A5C
:200B40000121022001F050FAD0E0694B1B78032B0AD1684A0121012001F046FA694A01211B
:200B6000022001F041FAC1E0614B1B78042B0AD1604A0121012001F037FA634A012102203D
:200B800001F032FAB2E05A4B1B78052B0AD1594A0121012001F028FA5C4A0121022001F08F
:200BA00023FAA3E0524B1B78062B0AD1514A0121012001F019FA564A0121022001F014FA94
:200BC00094E04B4B1B78072B0AD14A4A0121012001F00AFA4F4A0121022001F005FA85E06D
:200BE000434B1B78082B0AD1424A0121012001F0FBF9494A0121022001F0F6F976E03C4B7E
:200C00001B78092B0AD1454A0121012001F0ECF9434A0121022001F0E7F967E0344B1B788F
:200C20000A2B0AD13F4A0121012001F0DDF93E4A0121022001F0D8F958E02D4B1B780B2B0A
:200C40000AD13A4A0121012001F0CEF9384A0121022001F0C9F949E0254B1B780E2B0AD181
:200C6000244A0121012001F0BFF9324A0121022001F0BAF93AE01E4B1B780F2B0AD11D4A24
:200C80000121012001F0B0F92B4A0121022001F0ABF92BE0164B1B78102B0AD1154A012193
:200CA000012001F0A1F9254A0121022001F09CF91CE00F4B1B78112B0AD10E4A01210120B4
:200CC00001F092F91E4A0121022001F08DF90DE0074B1B78122B09D1064A0121012001F008
:200CE00083F9184A0121022001F07EF900BF80BD98000020387C00084C7C0008607C000846
:200D0000747C0008887C00089C7C0008B07C0008C47C0008D87C0008247B0008EC7C0008C0
:200D2000007D0008147D0008287D00083C7D0008507D0008647D0008787D00088C7D00085B
:200D4000A07D0008B47D000880B584B002AF904B1B78012B0AD10023019300230093022314
:200D600001220421022001F0AFF90DE1884B1B78022B0AD10023019300230093022302225E
:200D80000421022001F0A0F9FEE0814B1B78032B0AD1002301930023009302230322042160
:200DA000022001F091F9EFE0794B1B78042B0AD10023019300230093022304220421022067
:200DC00001F082F9E0E0724B1B78052B0AD10023019300230093022305220421022001F09B
:200DE00073F9D1E06A4B1B78062B0AD10023019300230093022306220421022001F064F933
:200E0000C2E0634B1B78072B0AD10023019300230093022307220421022001F055F9B3E00E
:200E20005B4B1B780A2B0ED1FFF7C4FA0346FB71FA79012301930023009303230C210220A6
:200E400001F042F9A0E0524B1B780B2B52D1514A0121012001F0C8F84F4A0121022001F000
:200E6000C3F802F055FA0246002301930023009302230621012001F027F902F039FA0246D6
:200E8000002301930023009302230921012001F01BF902F01DFA02460023019300230093B2
:200EA00002230C21012001F00FF902F041FA0246002301930023009302230621022001F085
:200EC00003F902F045FA0246002301930023009302230921022001F0F7F802F049FA024662
:200EE000002301930023009302230E21022001F0EBF849E0264B1B780E2B0AD10023019343
:200F00000023009302230C220421022001F0DCF83AE01F4B1B780F2B0AD1002301930023B6
:200F2000009302230D220421022001F0CDF82BE0174B1B78102B0AD100230193002300934A
:200F400002230E220421022001F0BEF81CE0104B1B78112B0AD100230193002300930223BB
:200F60000F220421022001F0AFF80DE0084B1B78122B09D1002301930023009302231022B3
:200F80000421022001F0A0F800BF0837BD4680BD980000203C7D0008507D000880B500AF11
:200FA000012210210F4803F0E6FD322002F0F0FF002210210B4803F0DEFD322002F0E8FFDE
:200FC00001221021074803F0D6FD322002F0E0FF00221021034803F0CEFD322002F0D8FF0E
:200FE00000BF80BD000C014080B582B000AF00F085FB0346002B26D1FFF7D0FF184802F0A0
:00000001FF
