:020000040800F2
:100000000050002001020008070200080B0200084F
:100010007D02000881020008C902000800000000FB
:1000200000000000000000000000000011030008B4
:10003000150300080000000019030008A90C0008BF
:100040002D0300082D0300082D0300082D030008D0
:100050002D0300082D0300082D0300082D030008C0
:100060002D0300082D0300082D0300082D030008B0
:100070002D0300082D0300082D0300082D030008A0
:100080002D0300082D0300082D0300082D03000890
:100090002D0300082D0300082D0300082D03000880
:1000A0002D0300082D0300082D0300082D03000870
:1000B0002D0300082D0300082D0300082D03000860
:1000C0002D0300082D0300082D0300082D03000850
:1000D0002D0300082D0300082D0300082D03000840
:1000E0002D0300082D0300082D03000800B583B080
:1000F00000F0D0FC304B314A1360314A1360314B71
:10010000314A32498B4204D21168196004330432F7
:10011000F7E72A4B1A682E4B9A4200D0FEE7284B8D
:100120001A682C4B9A42F9D1234B2B4A13602B4A65
:1001300013602B4B02E000221A600433294A9342D9
:10014000F9D3254B1B6813B9244B1B6803B1FEE799
:1001500000F008FD694601A800F0AEFB224C234BDD
:10016000E41AA4100025AC4214DC214C214BE41A03
:10017000A4100025AC4213DC0099019800F034FD76
:1001800005461D4C1D4BE41AA410002C0EDC28461D
:1001900000F06EFB154B53F8253098470135E2E728
:1001A000144B53F8253098470135E3E7013C134BD6
:1001B00053F824309847E8E7BABADECA00000020B6
:1001C0007C000020000000207C1700088000002038
:1001D0007856341232547698800000202001002096
:1001E0008000002024010020580300085803000864
:1001F0005803000858030008580300085803000873
:1002000008B5FFF773FF00BEFEE71EF0040F0CBF3A
:10021000EFF30880EFF309807146414A10472DE95A
:10022000F04182B004468846124B5E6B9F6B9D6A1C
:100230001B6B13F0020F03D00E4BDB6A002B0CDBA1
:100240000D4800F075FBCDF800803B46324629464C
:10025000204600F095FB00BEFEE74BF6AB6100F0D8
:1002600009FC0028ECD0034B4FF00042DA6202B0E8
:10027000BDE8F08100ED00E0A416000800BEFEE736
:100280001EF0040F0CBFEFF30880EFF309807146F6
:10029000244A10472DE9F04182B004468846084BB5
:1002A0005E6B9F6B9D6A074800F042FBCDF80080B3
:1002B0003B4632462946204600F062FB00BEFEE780
:1002C00000ED00E0B41600081EF0040F0CBFEFF3C1
:1002D0000880EFF309807146134A10472DE9F04179
:1002E00082B004468846084B5E6B9F6B9D6A074848
:1002F00000F01EFBCDF800803B46324629462046E2
:1003000000F03EFB00BEFEE700ED00E0C016000876
:1003100000BEFEE700BEFEE700BEFEE7704700003D
:100320001F02000895020008DD02000800BEFEE77B
:100330007C17000800000020800000207C170008C7
:1003400000000000000000008000002024010020C8
:080350000000000000000000A5
:1003580010B504460E4B18784FF47A73B3FBF0F3DC
:100368000C4A1068B0FBF3F000F09AF868B90F2C4B
:1003780001D901200AE0002221464FF0FF3000F0A9
:1003880049F8054B1C60002000E0012010BD00BFAB
:1003980004000020140000200800002008B5074AC7
:1003A800136843F010031360032000F015F80F20C2
:1003B800FFF7CEFF00F040FC002008BD00200240FF
:1003C800034A1168034B1B780B441360704700BF46
:1003D800140100200400002010B50446C31E042B9D
:1003E8000FD80A4AD36823F4E0631B041B0C2402C9
:1003F80004F4E064234343F0BF6343F40033D36061
:1004080010BD9221024800F0B1FBEAE700ED00E0E0
:100418002415000870B505460C4616460F2A25D83F
:100428000F2C28D81B4BDB68C3F30223C3F1070248
:10043800042A28BF0422191D062921D9033B4FF09D
:10044800FF3101FA02F224EA02049C4001FA03F3A4
:1004580026EA03063443002D14DB2401E4B205F137
:10046800604505F5614585F8004370BDAA210A4835
:1004780000F07CFBD4E7AB21074800F077FBD1E71D
:100488000023DCE705F00F052401E4B2034B5C55BB
:10049800EBE700BF00ED00E02415000814ED00E0D4
:1004A8000138B0F1807F0AD2064B5860064AF02125
:1004B80082F823100020986007221A6070470120F4
:1004C800704700BF10E000E000ED00E010B5044602
:1004D800042800D038B9042C0BD0094A136823F03B
:1004E8000403136010BD40F2C911064800F03EFB3A
:1004F800F1E7034A136843F004031360F2E700BF0F
:1005080010E000E0241500082DE9F04383B0804690
:100518000F46B64B984213D003F5806398420FD02C
:1005280003F5806398420BD003F58063984207D0A7
:1005380003F58063984203D0BD21AD4800F016FB57
:100548003B689AB212B11B0C1B041BB1BE21A84810
:1005580000F00CFB7B68012B1ED9112B1CD0022B41
:100568001AD0122B18D0A34A934215D002F5801244
:10057800934211D002F5801293420DD0A2F5F812E1
:10058800934209D002F58012934205D002F58012F9
:10059800934201D0032B03D14FF000094D46D7E019
:1005A800BF21934800F0E2FAF6E7002B5ED0012B5A
:1005B80005D1FB68013B022B65D8D7F80C90FF2CBE
:1005C80000F295804046FF2C00F29480AA00036850
:1005D8000F21914023EA010309FA02F21343036051
:1005E8007B6813F0805F00F0B280834B9A6942F019
:1005F80001029A619B6903F001030193019BAA0818
:10060800911C7E4B53F8210005F0030399000F233A
:100618008B4020EA0300754B984571D003F5806341
:10062800984500F0CD8003F58063984500F0CA80B6
:1006380003F58063984561D0042362E0704A9342D1
:1006480014D00BD96F4A934210D002F580329342EE
:100658000CD0A2F580129342B1D107E0A2F5801226
:10066800934203D002F580329342A8D1BB68022B93
:100678002DD8BB68002B37D0012B2DD0C8F81460BB
:100688004FF008099BE7D521594800F06FFA94E725
:10069800DC21574800F06AFA8EE0FB68013B022B28
:1006A80003D8FB6803F1080989E7E321504800F003
:1006B8005DFAF6E7FB68013B022B03D8FB6803F100
:1006C8000C097CE7EA214A4800F050FAF6E7F721DE
:1006D800474800F04BFACCE7C8F810604FF008091B
:1006E8006DE74FF000096AE74FF0040967E708F182
:1006F800040068E7A5F10802920068E7032300E018
:1007080000238B40034302323C4941F822307B6886
:1007180013F4803F58D03C4A1368234313607B6826
:1007280013F4003F56D0384A5368234353607B681C
:1007380013F4801F54D0344A9368234393607B6832
:1007480013F4001F62D0304AD3681C43D4600135CB
:100758003C6834FA05F35FD00126AE403440A64227
:10076800F5D1224B984513D003F5806398450FD0F7
:1007780003F5806398450BD003F58063984507D04F
:1007880003F58063984503D0CD21194800F0EEF9B0
:100798007B68122B8ED03FF651AF022B3FF47DAF12
:1007A8007FF603AF032B9CD0112B7FF408AFFB68B7
:1007B800013B022B3FF66CAFFB6803F10409FEE630
:1007C80001239EE702239CE70F4A136823EA0403E8
:1007D8001360A4E70C4A536823EA04035360A6E7AE
:1007E800094A936823EA04039360A8E700080140D4
:1007F80058150008000011100010024000000140C8
:10080800000021100000311000040140044AD368A0
:1008180023EA0404D4609AE703B0BDE8F08300BF7C
:100828000004014070B5064615460C4629B1012D55
:1008380009D875B92404346170BD4FF4EA710648CB
:1008480000F094F9F3E740F2D511034800F08EF96F
:10085800EFE73461F0E700BF58150008014B18684E
:10086800704700BF14000020FEE7000008B50346EB
:100878000C4A12685AB10B4A1068033323F0030379
:100888000344094A934206D8064A136008BD054A3C
:1008980006491160EFE700F009FA0C2303604FF0F6
:1008A800FF30F3E784000020004C002024010020E2
:1008B80001230360014B0B60704700BF0C00002050
:1008C8002DE9F04385B004460F4643560BB10E465A
:1008D8001EE0042528462146ABBE0446384605B02E
:1008E800BDE8F08314F9011B04AA1A4402F8101C8D
:1008F8000133AB42F6D304AA1344002203F8102CA8
:100908004FF00408E94640464946ABBE8046761B90
:10091800002EE3D03546102E28BF10250023E8E727
:1009280008B5FFF7CDFF08BD0FB400B583B004AB21
:1009380053F8042B01938021064800F0F1F90028B0
:1009480003DD01460348FFF7EBFF03B05DF804EB56
:1009580004B070478C00002010B5044600F0ACF9D4
:1009680001462046FFF7DCFF01210248FFF7D8FFC8
:1009780010BD00BF20160008F8B504460D461746FE
:100988001E462748FFF7D0FF21682648FFF7CCFF0F
:1009980061682548FFF7C8FFA1682448FFF7C4FF2E
:1009A800E1682348FFF7C0FF21692248FFF7BCFF31
:1009B80061692148FFF7B8FFA1692048FFF7B4FF34
:1009C800E1691F48FFF7B0FF1E48FFF7ADFF294652
:1009D8001D48FFF7A9FF1D4CE16A1D48FFF7A4FF5A
:1009E800216B1C48FFF7A0FFE16B1B48FFF79CFF3A
:1009F80015F0800F0AD115F4004F0CD11748FFF7F6
:100A080093FF06991648FFF78FFFF8BD394615483A
:100A1800FFF78AFFEFE731461348FFF785FFEDE759
:100A28008815000898150008A8150008B8150008CA
:100A3800C8150008D8150008E8150008F8150008BA
:100A480008160008181600082416000800ED00E033
:100A580034160008441600085416000884160008C6
:100A68008C160008641600087416000883691A8832
:100A78008A4201D0002070470268033A012A03D84D
:100A880002338361012070470020704708B500F0E9
:100A980009F8024A024B9A6008BD00BF000000082E
:100AA80000ED00E0704700001F4B5B6803F00C038B
:100AB800042B14D0082B16D01BB11C4B1C4A1A60EF
:100AC80002E01A4B1A4A1A60174B5B68C3F3031308
:100AD800184AD15C154A1368CB4013607047134B12
:100AE800134A1A60F0E7104A53685268C3F3834305
:100AF800023312F4803F0AD00B4A526812F4003FC6
:100B08000BD00D4A02FB03F3084A1360DCE70A4ADC
:100B180002FB03F3054A1360D6E7054A02FB03F319
:100B2800024A1360D0E700BF001002401400002002
:100B380000127A00D016000800093D0008B5FFF73A
:100B48008DFE054BA3FB00308009FFF7A9FC0420AC
:100B5800FFF7BCFC08BD00BFD34D621008B5FFF716
:100B68001DFCFFF7EBFFFFF79FFF08BD08B50A461E
:100B780001460248FFF7D8FEFEE700BFE01600086E
:100B880008B500224FF400510148FFF74BFE08BD9D
:100B98000010014008B501224FF400510148FFF749
:100BA80041FE08BD0010014000B585B00A4A9369AE
:100BB80043F0100393614FF4005300930123019312
:100BC80003220392029369460448FFF79DFCFFF74E
:100BD800E1FF05B05DF804FB001002400010014081
:100BE80010B51148FFF7B8FE104B19681048FFF709
:100BF8009BFE00F023F8FFF7D7FF00240DE040F23A
:100C0800EE2000F039F8FFF7C5FFFA2000F034F8BD
:100C1800013421460748FFF787FEFFF7B1FF002C94
:100C2800EDD14FF47A70ECE710170008140000209B
:100C3800241700083C170008704700000A4B1B687F
:100C48000A4AA2FB03239B09013BB3F1807F09D227
:100C5800074A5360074BF02183F823100023936061
:100C680007231360704700BF14000020D34D6210A3
:100C780010E000E000ED00E0034B1860024B1B6839
:100C8800002BFBD1704700BF1C010020034B1B68E1
:100C98001BB1024A1368013B136070471C01002016
:100CA80008B5FFF78DFBFFF7F1FF08BD014B18688A
:100CB800704700BF18000020034613F8012B002AD4
:100CC800FBD1181A0138704730B5141E05469BB081
:100CD800184605DA8B234FF0FF302B601BB030BD70
:100CE8004FF40273ADF80C300CBF234604F1FF3308
:100CF800029305934FF6FF7300910491ADF80E30FF
:100D080002461E9B6946284600F072F8431CBCBF89
:100D18008B232B60002CE1D00022009B1A70DDE7AA
:100D280007B5009313460A46014603480068FFF7D3
:100D3800CBFF03B05DF804FB180000202DE9F04755
:100D48008E6882469E420C469046994637D88A89D4
:100D580012F4906F31D00223256809696F1A65690A
:100D680005EB450595FBF3F509F101033B449D426D
:100D780038BF1D46530530D5294600F035FB0646D9
:100D880050B90C234FF0FF30CAF80030A38943F064
:100D98004003A381BDE8F0873A46216900F0B4FA20
:100DA800A38923F4906343F08003A38126613E4422
:100DB80026604E466561ED1BA5604E4500D94E463E
:100DC80032464146206800F0AAFAA36800209B1B1F
:100DD800A36023681E442660DCE72A4600F05EFB19
:100DE80006460028E2D12169504600F0B1FAC8E76A
:100DF8002DE9F04F9DB003938B8980461D060C4664
:100E080016460FD50B696BB9402100F0EDFA20604A
:100E1800206128B90C23C8F800304FF0FF30C7E034
:100E2800402363610023099320238DF82930302360
:100E38004FF0010B8DF82A3037463D4615F8013B37
:100E48000BB1252B3ED1B7EB060A0BD053463246E1
:100E580021464046FFF772FF013000F0A480099B4D
:100E6800534409933B78002B00F09D8000234FF0FA
:100E7800FF32CDE90523049307938DF853301A9375
:100E88002F46052217F8011B4F4800F02FFA049B44
:100E9800D0B9D90644BF20228DF853201A0744BF81
:100EA8002B228DF853202A782A2A15D02F46002085
:100EB8000A25079A394611F8013B303B092B4DD9D1
:100EC800B8B10FE02F46B8E73F4A3D46801A0BFA03
:100ED80000F018430490D3E7039A111D1268039198
:100EE800002A01DB079204E0524243F00203079212
:100EF80004933B782E2B0CD17B782A2B33D1039B80
:100F080002371A1D1B680392002BB8BF4FF0FF333E
:100F180005932E4D03223978284600F0E7F938B1B9
:100F28004023401B03FA00F0049B0137034304935A
:100F38003978062226487E1C8DF8281000F0D6F94C
:100F4800002838D0234B13BB039B073323F0070338
:100F580008330393099B4B4409936DE705FB023261
:100F680001200F46A6E700230A25194601370593F5
:100F7800384610F8012B303A092A03D9002BC8D07B
:100F88000591C6E705FB012101230746F0E703ABFE
:100F980000932246104B04A94046AFF30080B0F1FD
:100FA800FF3F8146D6D1A3895B063FF536AF099846
:100FB8001DB0BDE8F08F03AB00932246064B04A991
:100FC800404600F081F8EAE7481700084E17000885
:100FD8005217000800000000450D00082DE9F047F1
:100FE80091461F468A680B6906469342B8BF134666
:100FF800C9F8003091F843200C46DDF8208012B182
:101008000133C9F800302368990642BFD9F8003087
:101018000233C9F80030256815F0060507D104F138
:10102800190AE368D9F800209B1AAB4229DC94F826
:1010380043302268003318BF012392062ED404F1EE
:10104800430239463046C047013021D02368E5685D
:1010580003F00603042B18BF0025D9F800204FF031
:10106800000908BFAD1AA368226908BF25EAE5751B
:101078009342C4BF9B1AED181A344D451AD100206B
:1010880008E00123524639463046C047013003D1B3
:101098004FF0FF30BDE8F0870135C2E73020E11896
:1010A80081F843005A1C94F845102244023382F810
:1010B8004310C4E70123224639463046C047013071
:1010C800E6D009F10109D8E72DE9F04301F1430C15
:1010D8000C46097E85B06E291746064698460C9A36
:1010E80000F0B38022D8632936D00AD8002900F04E
:1010F800B980582900F0838004F1420584F8421031
:1011080032E0642901D06929F6D120681368050600
:1011180003F104012AD51B681160002B03DA2D2284
:101128005B4284F843206F480A2239E0732900F0B3
:101138009D8008D86F2920D07029DDD1236843F01D
:101148002003236003E0752917D07829D4D17823A8
:10115800654884F8453055E0136804F14205191DC7
:101168001B68116084F8423001238CE01B6810F082
:10117800400F116018BF1BB2CFE713682568181D10
:101188001060280601D51B6802E06806FBD51B889D
:101198006F2914BF0A2208225248002184F84310FC
:1011A8006568002DA560C0F29580216821F00401D2
:1011B8002160002B3DD1002D40F08E806546082A25
:1011C8000BD12368DB0708D5236962689A42DEBF22
:1011D800302305F8013C05F1FF35ACEB050323612D
:1011E800CDF800803B4603AA21463046FFF7F6FEBD
:1011F80001304DD14FF0FF3005B0BDE8F0833948DC
:1012080084F84510136821681D1D1B6815600A06BF
:101218000BD5CA0744BF41F0200121601BB92268E1
:1012280022F0200222601022B7E74D0648BF9BB289
:10123800EFE76546B3FBF2F102FB1133C35C05F837
:10124800013D0B460029F5D1B9E713682568181D3B
:101258006169106028061B6801D5196002E06A06FA
:10126800FBD51980002365462361B9E71368191D6A
:1012780011601D6862680021284600F037F808B13F
:10128800401B606063682361002384F84330A7E74C
:1012980023692A4639463046C0470130AAD0236818
:1012A8009B0713D4E068039B9842B8BF1846A3E78E
:1012B80001234A4639463046C04701309AD00135A5
:1012C800E368039A9B1AAB42F2DCEBE7002504F1D2
:1012D8001909F5E7002BACD1037804F1420584F82D
:1012E80042306CE7591700086A17000810B5C9B2F0
:1012F80002449042034601D1002303E01C780130E8
:101308008C42F6D1184610BD10B5431E0A449142CE
:1013180000D110BD11F8014B03F8014FF7E78842DF
:1013280010B501EB020307D8421E99420AD011F802
:10133800014B02F8014FF8E78342F5D98118D21A18
:10134800D34200D110BD13F8014D01F8014DF7E764
:1013580038B50546002943D051F8043C0C1F002B32
:10136800B8BFE41800F0D0F81E4A1368104633B925
:10137800636014602846BDE8384000F0C6B8A34250
:101388000BD921686218934201BF1A685B6852182A
:10139800226063600460EDE713465A680AB1A2420E
:1013A800FAD919685818A0420BD120680144581876
:1013B80082421960DED110685268014419605A608F
:1013C800D8E702D90C232B60D4E7206821188A4279
:1013D80001BF116852680918216062605C60C9E742
:1013E80038BD00BF0C01002070B5CD1C25F00305E9
:1013F80008350C2D38BF0C25002D064601DBA94207
:1014080003D90C233360002070BD00F07DF8214A19
:101418001468214691B9204C23681BB9304600F066
:1014280063F820602946304600F05EF8431C24D15A
:101438000C233046336000F068F8E4E70B685B1B68
:1014480018D40B2B0FD90B60CC18CD50304600F0B8
:101458005CF804F10B00231D20F00700C31AD3D059
:101468005A42E250D0E74B688C4216BF6360136063
:101478000C46EBE70C464968CCE7C41C24F003048F
:10148800A04205D0211A304600F02EF80130CFD006
:101498002560DBE70C01002010010020F8B50746A5
:1014A80014460E4621B9BDE8F8401146FFF79CBF27
:1014B80022B9FFF74DFF25462846F8BD00F026F86B
:1014C800A0420FD221463846FFF78EFF0546002876
:1014D800F2D031462246FFF717FF31463846FFF76C
:1014E80037FFE9E73546E7E738B50023054C0546F9
:1014F80008462360FFF7BAF9431C02D1236803B1F9
:101508002B6038BD180100207047704751F8043C23
:10151800181F002BBCBF0B58C01870472E2E2F73F6
:10152800797374656D2F7372632F73746D333266BC
:10153800312D68616C2F73746D3332663178785F42
:1015480068616C5F636F727465782E6300000000D9
:101558002E2E2F73797374656D2F7372632F7374C6
:101568006D333266312D68616C2F73746D3332665A
:101578003178785F68616C5F6770696F2E6300000F
:10158800537461636B206672616D653A0A000000EE
:10159800205230203D2020253038580A0000000015
:1015A800205231203D2020253038580A0000000004
:1015B800205232203D2020253038580A00000000F3
:1015C800205233203D2020253038580A00000000E2
:1015D80020523132203D20253038580A00000000C2
:1015E800204C52203D2020253038580A00000000A9
:1015F800205043203D2020253038580A00000000A4
:1016080020505352203D20253038580A0000000051
:101618004653522F4641523A0A000000204346538F
:1016280052203D2020253038580A000020484653D3
:1016380052203D2020253038580A000020444653C7
:1016480052203D2020253038580A000020414653BA
:1016580052203D2020253038580A0000204D4D46A4
:101668004152203D20253038580A0000204246418A
:1016780052203D2020253038580A00004D697363F8
:101688000A000000204C522F4558435F52455455DC
:10169800524E3D20253038580A0000005B486172E0
:1016A800644661756C745D0A000000005B427573E6
:1016B8004661756C745D0A005B55736167654661C8
:1016C800756C745D0A000000000000000000000056
:1016D800010203040607080957726F6E67207061DC
:1016E80072616D65746572732076616C75653A20F8
:1016F80066696C65202573206F6E206C696E6520A5
:1017080025640D0A0000000048656C6C6F2041726A
:101718006D20576F726C6421000000005379737458
:10172800656D20636C6F636B3A20257520487A0AD3
:10173800000000005365636F6E642025750A000081
:10174800232D302B2000686C4C00656667454647A2
:101758000030313233343536373839414243444525
:101768004600303132333435363738396162636494
:03177800656600A3
:10177C007856341201FFFFFF100000008800002093
:10178C00000000000024F4001C00002000000000F9
:10179C00000000000000000000000000000000003D
:1017AC00000000000000000000000000000000002D
:1017BC00000000000000000000000000000000001D
:1017CC00000000000000000000000000000000000D
:1017DC0000000000000000000000000000000000FD
:1017EC000000000000000000000000003254769859
:04000005080000ED02
:00000001FF
